{
  "contractName": "HCTToken",
  "abi": [
    {
      "inputs": [],
      "payable": false,
      "stateMutability": "nonpayable",
      "type": "constructor"
    },
    {
      "anonymous": false,
      "inputs": [
        {
          "indexed": true,
          "internalType": "address",
          "name": "owner",
          "type": "address"
        },
        {
          "indexed": true,
          "internalType": "address",
          "name": "spender",
          "type": "address"
        },
        {
          "indexed": false,
          "internalType": "uint256",
          "name": "value",
          "type": "uint256"
        }
      ],
      "name": "Approval",
      "type": "event"
    },
    {
      "anonymous": false,
      "inputs": [
        {
          "indexed": true,
          "internalType": "address",
          "name": "from",
          "type": "address"
        },
        {
          "indexed": true,
          "internalType": "address",
          "name": "to",
          "type": "address"
        },
        {
          "indexed": false,
          "internalType": "uint256",
          "name": "value",
          "type": "uint256"
        }
      ],
      "name": "Transfer",
      "type": "event"
    },
    {
      "constant": true,
      "inputs": [],
      "name": "name",
      "outputs": [
        {
          "internalType": "string",
          "name": "",
          "type": "string"
        }
      ],
      "payable": false,
      "stateMutability": "view",
      "type": "function"
    },
    {
      "constant": true,
      "inputs": [],
      "name": "symbol",
      "outputs": [
        {
          "internalType": "string",
          "name": "",
          "type": "string"
        }
      ],
      "payable": false,
      "stateMutability": "view",
      "type": "function"
    },
    {
      "constant": true,
      "inputs": [],
      "name": "decimals",
      "outputs": [
        {
          "internalType": "uint8",
          "name": "",
          "type": "uint8"
        }
      ],
      "payable": false,
      "stateMutability": "view",
      "type": "function"
    },
    {
      "constant": true,
      "inputs": [],
      "name": "totalSupply",
      "outputs": [
        {
          "internalType": "uint256",
          "name": "",
          "type": "uint256"
        }
      ],
      "payable": false,
      "stateMutability": "view",
      "type": "function"
    },
    {
      "constant": true,
      "inputs": [
        {
          "internalType": "address",
          "name": "account",
          "type": "address"
        }
      ],
      "name": "balanceOf",
      "outputs": [
        {
          "internalType": "uint256",
          "name": "",
          "type": "uint256"
        }
      ],
      "payable": false,
      "stateMutability": "view",
      "type": "function"
    },
    {
      "constant": false,
      "inputs": [
        {
          "internalType": "address",
          "name": "recipient",
          "type": "address"
        },
        {
          "internalType": "uint256",
          "name": "amount",
          "type": "uint256"
        }
      ],
      "name": "transfer",
      "outputs": [
        {
          "internalType": "bool",
          "name": "",
          "type": "bool"
        }
      ],
      "payable": false,
      "stateMutability": "nonpayable",
      "type": "function"
    },
    {
      "constant": true,
      "inputs": [
        {
          "internalType": "address",
          "name": "owner",
          "type": "address"
        },
        {
          "internalType": "address",
          "name": "spender",
          "type": "address"
        }
      ],
      "name": "allowance",
      "outputs": [
        {
          "internalType": "uint256",
          "name": "",
          "type": "uint256"
        }
      ],
      "payable": false,
      "stateMutability": "view",
      "type": "function"
    },
    {
      "constant": false,
      "inputs": [
        {
          "internalType": "address",
          "name": "spender",
          "type": "address"
        },
        {
          "internalType": "uint256",
          "name": "amount",
          "type": "uint256"
        }
      ],
      "name": "approve",
      "outputs": [
        {
          "internalType": "bool",
          "name": "",
          "type": "bool"
        }
      ],
      "payable": false,
      "stateMutability": "nonpayable",
      "type": "function"
    },
    {
      "constant": false,
      "inputs": [
        {
          "internalType": "address",
          "name": "sender",
          "type": "address"
        },
        {
          "internalType": "address",
          "name": "recipient",
          "type": "address"
        },
        {
          "internalType": "uint256",
          "name": "amount",
          "type": "uint256"
        }
      ],
      "name": "transferFrom",
      "outputs": [
        {
          "internalType": "bool",
          "name": "",
          "type": "bool"
        }
      ],
      "payable": false,
      "stateMutability": "nonpayable",
      "type": "function"
    },
    {
      "constant": false,
      "inputs": [],
      "name": "buyToken",
      "outputs": [],
      "payable": true,
      "stateMutability": "payable",
      "type": "function"
    }
  ],
  "bytecode": "0x6080604052600a6006553480156200001657600080fd5b506040518060400160405280600f81526020017f48616e64694372616674546f6b656e00000000000000000000000000000000008152506002908051906020019062000064929190620000d5565b506040518060400160405280600381526020017f484354000000000000000000000000000000000000000000000000000000000081525060039080519060200190620000b2929190620000d5565b506003600460006101000a81548160ff021916908360ff16021790555062000184565b828054600181600116156101000203166002900490600052602060002090601f016020900481019282601f106200011857805160ff191683800117855562000149565b8280016001018555821562000149579182015b82811115620001485782518255916020019190600101906200012b565b5b5090506200015891906200015c565b5090565b6200018191905b808211156200017d57600081600090555060010162000163565b5090565b90565b61109280620001946000396000f3fe6080604052600436106100915760003560e01c806370a082311161005957806370a082311461028857806395d89b41146102ed578063a48217191461037d578063a9059cbb14610387578063dd62ed3e146103fa57610091565b806306fdde0314610096578063095ea7b31461012657806318160ddd1461019957806323b872dd146101c4578063313ce56714610257575b600080fd5b3480156100a257600080fd5b506100ab61047f565b6040518080602001828103825283818151815260200191508051906020019080838360005b838110156100eb5780820151818401526020810190506100d0565b50505050905090810190601f1680156101185780820380516001836020036101000a031916815260200191505b509250505060405180910390f35b34801561013257600080fd5b5061017f6004803603604081101561014957600080fd5b81019080803573ffffffffffffffffffffffffffffffffffffffff16906020019092919080359060200190929190505050610521565b604051808215151515815260200191505060405180910390f35b3480156101a557600080fd5b506101ae61071e565b6040518082815260200191505060405180910390f35b3480156101d057600080fd5b5061023d600480360360608110156101e757600080fd5b81019080803573ffffffffffffffffffffffffffffffffffffffff169060200190929190803573ffffffffffffffffffffffffffffffffffffffff16906020019092919080359060200190929190505050610728565b604051808215151515815260200191505060405180910390f35b34801561026357600080fd5b5061026c610aaa565b604051808260ff1660ff16815260200191505060405180910390f35b34801561029457600080fd5b506102d7600480360360208110156102ab57600080fd5b81019080803573ffffffffffffffffffffffffffffffffffffffff169060200190929190505050610ac1565b6040518082815260200191505060405180910390f35b3480156102f957600080fd5b50610302610b09565b6040518080602001828103825283818151815260200191508051906020019080838360005b83811015610342578082015181840152602081019050610327565b50505050905090810190601f16801561036f5780820380516001836020036101000a031916815260200191505b509250505060405180910390f35b610385610bab565b005b34801561039357600080fd5b506103e0600480360360408110156103aa57600080fd5b81019080803573ffffffffffffffffffffffffffffffffffffffff16906020019092919080359060200190929190505050610d33565b604051808215151515815260200191505060405180910390f35b34801561040657600080fd5b506104696004803603604081101561041d57600080fd5b81019080803573ffffffffffffffffffffffffffffffffffffffff169060200190929190803573ffffffffffffffffffffffffffffffffffffffff169060200190929190505050610f48565b6040518082815260200191505060405180910390f35b606060028054600181600116156101000203166002900480601f0160208091040260200160405190810160405280929190818152602001828054600181600116156101000203166002900480156105175780601f106104ec57610100808354040283529160200191610517565b820191906000526020600020905b8154815290600101906020018083116104fa57829003601f168201915b5050505050905090565b60008073ffffffffffffffffffffffffffffffffffffffff163373ffffffffffffffffffffffffffffffffffffffff1614156105a8576040517f08c379a000000000000000000000000000000000000000000000000000000000815260040180806020018281038252602481526020018061103a6024913960400191505060405180910390fd5b600073ffffffffffffffffffffffffffffffffffffffff168373ffffffffffffffffffffffffffffffffffffffff16141561062e576040517f08c379a0000000000000000000000000000000000000000000000000000000008152600401808060200182810382526022815260200180610ff36022913960400191505060405180910390fd5b81600160003373ffffffffffffffffffffffffffffffffffffffff1673ffffffffffffffffffffffffffffffffffffffff16815260200190815260200160002060008573ffffffffffffffffffffffffffffffffffffffff1673ffffffffffffffffffffffffffffffffffffffff168152602001908152602001600020819055508273ffffffffffffffffffffffffffffffffffffffff163373ffffffffffffffffffffffffffffffffffffffff167f8c5be1e5ebec7d5bd14f71427d1e84f3dd0314c0f7b2291e5b200ac8c7c3b925846040518082815260200191505060405180910390a36001905092915050565b6000600554905090565b60008073ffffffffffffffffffffffffffffffffffffffff168473ffffffffffffffffffffffffffffffffffffffff1614156107af576040517f08c379a00000000000000000000000000000000000000000000000000000000081526004018080602001828103825260258152602001806110156025913960400191505060405180910390fd5b600073ffffffffffffffffffffffffffffffffffffffff168373ffffffffffffffffffffffffffffffffffffffff161415610835576040517f08c379a0000000000000000000000000000000000000000000000000000000008152600401808060200182810382526023815260200180610fd06023913960400191505060405180910390fd5b816000808673ffffffffffffffffffffffffffffffffffffffff1673ffffffffffffffffffffffffffffffffffffffff16815260200190815260200160002054036000808673ffffffffffffffffffffffffffffffffffffffff1673ffffffffffffffffffffffffffffffffffffffff16815260200190815260200160002081905550816000808573ffffffffffffffffffffffffffffffffffffffff1673ffffffffffffffffffffffffffffffffffffffff16815260200190815260200160002054016000808573ffffffffffffffffffffffffffffffffffffffff1673ffffffffffffffffffffffffffffffffffffffff1681526020019081526020016000208190555081600160008673ffffffffffffffffffffffffffffffffffffffff1673ffffffffffffffffffffffffffffffffffffffff16815260200190815260200160002060003373ffffffffffffffffffffffffffffffffffffffff1673ffffffffffffffffffffffffffffffffffffffff1681526020019081526020016000205403600160008673ffffffffffffffffffffffffffffffffffffffff1673ffffffffffffffffffffffffffffffffffffffff16815260200190815260200160002060003373ffffffffffffffffffffffffffffffffffffffff1673ffffffffffffffffffffffffffffffffffffffff168152602001908152602001600020819055508273ffffffffffffffffffffffffffffffffffffffff168473ffffffffffffffffffffffffffffffffffffffff167fddf252ad1be2c89b69c2b068fc378daa952ba7f163c4a11628f55a4df523b3ef846040518082815260200191505060405180910390a3600190509392505050565b6000600460009054906101000a900460ff16905090565b60008060008373ffffffffffffffffffffffffffffffffffffffff1673ffffffffffffffffffffffffffffffffffffffff168152602001908152602001600020549050919050565b606060038054600181600116156101000203166002900480601f016020809104026020016040519081016040528092919081815260200182805460018160011615610100020316600290048015610ba15780601f10610b7657610100808354040283529160200191610ba1565b820191906000526020600020905b815481529060010190602001808311610b8457829003601f168201915b5050505050905090565b6000341415610c22576040517f08c379a00000000000000000000000000000000000000000000000000000000081526004018080602001828103825260198152602001807f696e76616c696420616d6f756e74206f6620696e76657374210000000000000081525060200191505060405180910390fd5b6000670de0b6b3a7640000600654340281610c3957fe5b0490508060055401600581905550806000803373ffffffffffffffffffffffffffffffffffffffff1673ffffffffffffffffffffffffffffffffffffffff16815260200190815260200160002054016000803373ffffffffffffffffffffffffffffffffffffffff1673ffffffffffffffffffffffffffffffffffffffff168152602001908152602001600020819055503373ffffffffffffffffffffffffffffffffffffffff16600073ffffffffffffffffffffffffffffffffffffffff167fddf252ad1be2c89b69c2b068fc378daa952ba7f163c4a11628f55a4df523b3ef836040518082815260200191505060405180910390a350565b60008073ffffffffffffffffffffffffffffffffffffffff168373ffffffffffffffffffffffffffffffffffffffff161415610dd7576040517f08c379a000000000000000000000000000000000000000000000000000000000815260040180806020018281038252601c8152602001807f7472616e7366657220746f20746865207a65726f20616464726573730000000081525060200191505060405180910390fd5b816000803373ffffffffffffffffffffffffffffffffffffffff1673ffffffffffffffffffffffffffffffffffffffff16815260200190815260200160002054036000803373ffffffffffffffffffffffffffffffffffffffff1673ffffffffffffffffffffffffffffffffffffffff16815260200190815260200160002081905550816000808573ffffffffffffffffffffffffffffffffffffffff1673ffffffffffffffffffffffffffffffffffffffff16815260200190815260200160002054016000808573ffffffffffffffffffffffffffffffffffffffff1673ffffffffffffffffffffffffffffffffffffffff168152602001908152602001600020819055508273ffffffffffffffffffffffffffffffffffffffff163373ffffffffffffffffffffffffffffffffffffffff167fddf252ad1be2c89b69c2b068fc378daa952ba7f163c4a11628f55a4df523b3ef846040518082815260200191505060405180910390a392915050565b6000600160008473ffffffffffffffffffffffffffffffffffffffff1673ffffffffffffffffffffffffffffffffffffffff16815260200190815260200160002060008373ffffffffffffffffffffffffffffffffffffffff1673ffffffffffffffffffffffffffffffffffffffff1681526020019081526020016000205490509291505056fe45524332303a207472616e7366657220746f20746865207a65726f206164647265737345524332303a20617070726f766520746f20746865207a65726f206164647265737345524332303a207472616e736665722066726f6d20746865207a65726f206164647265737345524332303a20617070726f76652066726f6d20746865207a65726f2061646472657373a265627a7a72315820279994c17d5f0fbaa3652e451330c56eb2207386f9ec16171d06ca6d2836d3d664736f6c63430005100032",
  "source": "pragma solidity >= 0.5.0;\r\n\r\nimport \"./ERC20.sol\";\r\n\r\ncontract HCTToken is ERC20 {\r\n   \r\n    mapping (address => uint256) private _balances;\r\n    mapping (address => mapping (address => uint256)) private _allowances;\r\n\r\n    string private _name;\r\n    string private _symbol;\r\n    uint8 private _decimals;\r\n    uint256 private _totalSupply;\r\n    uint256 tokenPerEther = 10;\r\n\r\n     constructor () public {\r\n        _name = \"HandiCraftToken\";\r\n        _symbol = \"HCT\";\r\n        _decimals = 3;\r\n    }\r\n    \r\n     function  name() public view returns (string memory) {\r\n        return _name;\r\n    }\r\n\r\n    function symbol() public view returns (string memory) {\r\n        return _symbol;\r\n    }\r\n\r\n    function decimals() public view returns (uint8) {\r\n        return _decimals;\r\n    }\r\n    \r\n    function totalSupply() public view returns (uint256) {\r\n        return _totalSupply;\r\n    }\r\n\r\n    function balanceOf(address account) public view returns (uint256) {\r\n        return _balances[account];\r\n    }\r\n\r\n    function transfer(address recipient, uint256 amount) public returns (bool) {\r\n         require(recipient != address(0), \"transfer to the zero address\");\r\n       //  require(_balances[msg.sender] >= amount);\r\n        _balances[msg.sender] = _balances[msg.sender] - amount;\r\n        _balances[recipient] = _balances[recipient] + amount;\r\n        emit Transfer(msg.sender, recipient, amount);\r\n    }\r\n    \r\n     function allowance(address owner, address spender) public view returns (uint256) {\r\n        return _allowances[owner][spender];\r\n    }\r\n    \r\n    function approve(address spender, uint256 amount) public returns (bool) {        // msg.sender = owner\r\n        require(msg.sender != address(0), \"ERC20: approve from the zero address\");\r\n        require(spender != address(0), \"ERC20: approve to the zero address\");\r\n\r\n        _allowances[msg.sender][spender] = amount;\r\n        emit Approval(msg.sender, spender, amount);\r\n        return true;\r\n    }\r\n    \r\n    function transferFrom(address sender, address recipient, uint256 amount) public returns (bool) {\r\n        require(sender != address(0), \"ERC20: transfer from the zero address\");\r\n        require(recipient != address(0), \"ERC20: transfer to the zero address\");\r\n     //   require(_balances[sender] >= amount && _allowances[sender][msg.sender] >= amount && amount > 0);\r\n        \r\n        _balances[sender] = _balances[sender] - amount;\r\n        _balances[recipient] = _balances[recipient] + amount;\r\n        _allowances[sender][msg.sender] = _allowances[sender][msg.sender] - amount;\r\n        \r\n        emit Transfer(sender,recipient,amount);\r\n        return true;\r\n    }\r\n    \r\n    function buyToken() public payable {\r\n        \r\n        require(msg.value != 0, \"invalid amount of invest!\");\r\n        \r\n        uint256 tokens = (msg.value * tokenPerEther) / 1 ether;\r\n\r\n        _totalSupply = _totalSupply + tokens;\r\n        _balances[msg.sender] = _balances[msg.sender] + tokens;\r\n        emit Transfer(address(0), msg.sender, tokens);\r\n    }\r\n}",
  "sourcePath": "C:\\Ethereum Projects\\hct\\src\\contracts\\HCTToken.sol",
  "compiler": {
    "name": "solc",
    "version": "0.5.16+commit.9c3226ce.Emscripten.clang"
  },
  "schemaVersion": "3.0.23",
  "updatedAt": "2020-04-09T18:27:20.631Z",
  "networkType": "ethereum",
  "devdoc": {
    "methods": {}
  },
  "userdoc": {
    "methods": {}
  }
}